:020000040800F2
:1000000028200020E9060008910600089306000851
:1000100095060008970600089906000800000000F1
:100020000000000000000000000000009B06000827
:100030009D060008000000009F060008A1060008B9
:1000400005070008090700080D0700081107000848
:1000500015070008190700081D07000821070008F8
:1000600025070008290700082D07000831070008A8
:1000700035070008390700083D0700084107000858
:1000800045070008490700084D0700085107000808
:1000900055070008590700085D07000861070008B8
:1000A00065070008690700086D0700087107000868
:1000B00075070008790700087D0700088107000818
:1000C00085070008890700088D07000891070008C8
:1000D00095070008990700089D070008A107000878
:1000E000A5070008A9070008AD070008B107000828
:1000F000B5070008B9070008BD070008C1070008D8
:10010000C5070008C9070008CD070008D107000887
:10011000D5070008D9070008DD070008E107000837
:10012000E5070008E9070008ED070008F1070008E7
:10013000F5070008F9070008FD0700080108000896
:1001400005080008090800080D0800081108000843
:1001500015080008190800081D08000821080008F3
:1001600025080008290800082D08000831080008A3
:1001700035080008390800083D0800084108000853
:1001800045080008490800080022DFF838311B68DC
:100190001A0032F0EC6208430243DFF828010260E3
:1001A00070470022DFF81C311B681A005201520907
:1001B00008430243DFF80C0102607047F0B40021ED
:1001C00000220023022400250226DFF8F8703F6891
:1001D00017F00C073900002904D0042906D008299B
:1001E00008D035E0DFF8E410016034E0DFF8E0101B
:1001F000016030E0DFF8D0100968C1F38055DFF806
:10020000C810096811F03F06002D0BD0DFF8C010B0
:10021000B1FBF6F1DFF8B0201268C2F3881202FBDE
:1002200001F30AE0DFF8A410B1FBF6F1DFF8982043
:100230001268C2F3881202FB01F3DFF88C10096820
:10024000C1F30141491C4C00B3FBF4F1016002E031
:10025000DFF878100160DFF86C10096811F0F00128
:100260000909DFF870208A5C0168D1404160DFF83D
:100270005410096811F4E051890ADFF858208A5CAB
:100280004168D1408160DFF83C10096811F4604199
:10029000490BDFF840208A5C4168D140C160F0BC66
:1002A0007047C9B2002905D00B49096808430A49BB
:1002B000086005E00849096831EA0000064908605D
:1002C0007047000008380240043802400024F4005F
:1002D00040787D01000000203038024080B545485C
:1002E000006850F001004349086043480021016064
:1002F00040480068414908403E490860404841493B
:1003000001603C48006830F480203A4908603E486B
:100310000021016000F005F83C485FF000610160D9
:1003200001BD82B00020019000200090314800689B
:1003300050F480302F4908602E48006810F40030D7
:1003400000900198401C01900098002803D101986A
:10035000B0F5A04FF0D127480068800302D50120F6
:10036000009001E000200090009801283ED128482C
:10037000006850F08050264908602648006850F414
:100380004040244908601C481B49096801601A481C
:10039000006850F40040184908601748006850F49D
:1003A000A0501549086016481B49016011480068B3
:1003B00050F080700F4908600E4800688001FBD53E
:1003C000164840F2057101600B4800688008800003
:1003D000094908600848006850F0020006490860B2
:1003E0000548006810F00C000828F9D102B07047E9
:1003F000000000000038024008380240FFFFF6FE0F
:1004000004380240103000240C38024008ED00E0AF
:10041000403802400070004019544007003C024040
:1004200040B2002808D540B210F00F003E4A8018B4
:10043000090100F8041C03E040B23C4A0901815460
:10044000704780B5411EB1F1807F01D301200EE0DD
:10045000401E374908600F215FF0FF30FFF7E0FFD3
:10046000344800210160344807210160002002BDAA
:1004700082B03248FFF7A2FE304840686421B0FBEA
:10048000F1F0FFF7DEFF052000F039F8012101202F
:10049000FFF707FF4FF48070009003208DF80500F0
:1004A00002208DF8040000208DF8060001208DF850
:1004B000070000A9224800F049F800215FF48000FD
:1004C000FFF762FE01210420FFF7EBFE4FF40070FE
:1004D000009003208DF8050002208DF80400002014
:1004E0008DF8060001208DF8070000A9154800F0DE
:1004F0002DF85FF040510020FFF753FEFEE701B4F6
:10050000114800990160104800680028FBD101B033
:1005100070470D480068002804D00B480068401E52
:10052000094908607047000018ED00E000E400E0B1
:1005300014E000E018E000E010E000E0100000200F
:1005400000000240000802402000002030B40022D9
:100550000023002400252A0047E0012393400C6873
:100560001C409C4240D1036803241500EDB26D008D
:10057000AC40A343036003680C791500EDB26D0035
:10058000AC40234303600B79012B02D00B79022B83
:100590001AD1836803241500EDB26D00AC40A3436B
:1005A000836083684C791500EDB26D00AC40234345
:1005B0008360436801249440A343436043688C797B
:1005C0009440A4B223434360C36803241500EDB2F2
:1005D0006D00AC40A343C360C368CC791500EDB295
:1005E0006D00AC402343C360521C102AB5D330BC0D
:1005F000704710B450F8041B81B102681218001D36
:1006000050F8043BDC0744BFA9F10104E31852F899
:10061000044B43F8044B091FF9D1EBE710BC7047BA
:1006200010B5074979441831064C7C44163404E06F
:10063000081D0A68511888470146A142F8D110BD2B
:100640002C0000004C00000050F8041B61B150F871
:10065000042BD30744BFA9F101039A18002342F8E1
:10066000043B091FFAD1EFE770470000DDFFFFFFF1
:1006700014000000100000200000000077FFFFFFC2
:1006800010000000C8010000000000200000000071
:100690007047FEE7FEE7FEE7FEE7704770477047EA
:1006A00080B5FFF736FF01BD00F009F8002801D042
:1006B000FFF7B6FF0020FFF7DBFE00F002F8012095
:1006C000704700F001B800000746384600F002F815
:1006D000FBE70000C046C046024A11001820ABBE2E
:1006E000FBE700BF260002000148804701480047A1
:1006F000DD020008F9060008C046C046C046C046F4
:10070000FFF7D2FFFFF7FEBFFFF7FEBFFFF7FEBF09
:10071000FFF7FEBFFFF7FEBFFFF7FEBFFFF7FEBF0D
:10072000FFF7FEBFFFF7FEBFFFF7FEBFFFF7FEBFFD
:10073000FFF7FEBFFFF7FEBFFFF7FEBFFFF7FEBFED
:10074000FFF7FEBFFFF7FEBFFFF7FEBFFFF7FEBFDD
:10075000FFF7FEBFFFF7FEBFFFF7FEBFFFF7FEBFCD
:10076000FFF7FEBFFFF7FEBFFFF7FEBFFFF7FEBFBD
:10077000FFF7FEBFFFF7FEBFFFF7FEBFFFF7FEBFAD
:10078000FFF7FEBFFFF7FEBFFFF7FEBFFFF7FEBF9D
:10079000FFF7FEBFFFF7FEBFFFF7FEBFFFF7FEBF8D
:1007A000FFF7FEBFFFF7FEBFFFF7FEBFFFF7FEBF7D
:1007B000FFF7FEBFFFF7FEBFFFF7FEBFFFF7FEBF6D
:1007C000FFF7FEBFFFF7FEBFFFF7FEBFFFF7FEBF5D
:1007D000FFF7FEBFFFF7FEBFFFF7FEBFFFF7FEBF4D
:1007E000FFF7FEBFFFF7FEBFFFF7FEBFFFF7FEBF3D
:1007F000FFF7FEBFFFF7FEBFFFF7FEBFFFF7FEBF2D
:10080000FFF7FEBFFFF7FEBFFFF7FEBFFFF7FEBF1C
:10081000FFF7FEBFFFF7FEBFFFF7FEBFFFF7FEBF0C
:10082000FFF7FEBFFFF7FEBFFFF7FEBFFFF7FEBFFC
:10083000FFF7FEBFFFF7FEBFFFF7FEBFFFF7FEBFEC
:10084000FFF7FEBFFFF7FEBFFFF7FEBF000000008F
:0C0850000102030401020304060708096A
:04000005080006F9F0
:00000001FF
